:020000040003F7
:10C00000803A002049C4030063C4030065C40300F0
:10C010000000000000000000000000000000000020
:10C02000000000000000000000000000D5C0030078
:10C03000000000000000000069C403006BC403009E
:10C040006DC403006DC403006DC403006DC4030020
:10C050006DC40300000000006DC403006DC4030044
:10C060006DC403006DC403006DC403006DC4030000
:10C070006DC403006DC403006DC403006DC40300F0
:10C080006DC40300D9D603006DC403006DC4030062
:10C09000F5D603006DC40300B9EF03006DC40300BF
:10C0A0006DC403006DC40300000000000000000028
:10C0B0000000000000000000000000000000000080
:10C0C0000348854603F00CF80048004781C203008E
:10C0D000803A00200648704502D1EFF3098101E063
:10C0E000EFF30881886902380078024A104700009F
:10C0F000FDFFFFFF6DC10300401E00BF00BF00BF7A
:10C1000000BF00BF00BF00BF00BF00BF00BF00BF37
:10C1100000BFF1D170470000401E00BF00BF00BF4C
:10C1200000BF00BF00BF00BF00BF00BF00BF00BF17
:10C1300000BFF1D170470000056885F308884068AA
:10C14000FF2464B2EFF30585002D01D1A646004718
:10C150002546064621273FBAF0B4002400250026D4
:10C160000027F0B4F92040B20047000010B50C469B
:10C17000002802D00120086010BD2168002911D0DC
:10C180001E48421A814212D03C2A0DD201223C3074
:10C190003C310B7803701346521C401E491E3C2B49
:10C1A000F7D904E00E200BE03C2202F05DFF0022F4
:10C1B0003C21124801F072FE1049891E08800020BF
:10C1C000206010BD70B505000BD000223C210B484B
:10C1D00001F064FE094CA41E2188884203D00B2084
:10C1E00070BD0E2070BD3C220449284602F03CFF81
:10C1F0002088401C2080002070BD0000823F00206D
:10C2000010B501F00BF810BD10B55F4A8AB01ECA18
:10C21000089405AC0EC4002805D005A818DF002836
:10C2200001D001F0A4F80F20800313DF002801D013
:10C2300001F09DF8554B48225549082002F098FE20
:10C24000002801D001F093F801216A46084602F067
:10C25000C1FE002801D001F08AF801206946087368
:10C26000684602F0CBFE002801D001F080F8494872
:10C2700002F09AFE002801D001F079F80AB010BD52
:10C280004548C2690021B12A48D000241520172250
:10C29000424B03218500ED182960401C9042F9D9DA
:10C2A00007203F4D4005E8603E480F214069890363
:10C2B000884202D0002001F05AF8012000070069EE
:10C2C00001218902884202D0002001F050F8364B4B
:10C2D000364A0521002001F011FA002801D001F0B2
:10C2E00046F801F020FD01F067FD01277E050028DA
:10C2F00017D0EE6001F06FFD002801D001F037F893
:10C3000020467840FFF780FF00F031F801F083FD10
:10C31000002801D001F02BF8AE6008E00124C161D3
:10C32000B4E720467840FFF76FFF00F020F80327BE
:10C330003F03002C04D1B86801F052FC002807D15B
:10C34000EE6001F002FD002801D001F010F8AE60AF
:10C35000B86801F045FC002806D001F02DFD00284A
:10C3600002D1B86801F004FD01F0FCFBFCE7084ACB
:10C3700010B548321421082000F0FAFF002801D03F
:10C3800000F0F5FF10BD00003CF103002BF00300AE
:10C390009422002001C20300000500400007005065
:10C3A000000500500010001033DB0300CC200020FB
:10C3B00010B500F01DF8002805D01F491D48486041
:10C3C000C8131E4988611E48018CC9B201290ED1CB
:10C3D000818C09070BD1018D0906090F042906D1AB
:10C3E000808D0006000F02D116490120886010BD23
:10C3F0001348018CC9B2012917D1818C090714D1C6
:10C40000018D09060A0F03D1828D1206120F0ED07C
:10C41000090F012903D1828D1206120F07D00329BB
:10C4200003D1808D0006000F01D00020704701204D
:10C4300070470000DFFF07C000050040006C0040AF
:10C44000C00F00F0000600400321094802680A43BB
:10C450000260084802680A430260074880470748AC
:10C460000047FEE7FEE7FEE7FEE7FEE7FEE7000027
:10C470002405004054050040B1C30300C1C00300BF
:10C48000FFB583B0074600200C9C864626880546EB
:10C490003AE07868A900421811886846818051887E
:10C4A000C1800022694601A865DF002839D16846AD
:10C4B00001780598814226D17046002801D00022DB
:10C4C00000E002222088891842180D998A4227D854
:10C4D000714600290AD1401C80B22080069A049936
:10C4E00011542088401C208001208646218806980F
:10C4F0000A18694601A865DF002812D1694620881C
:10C500000978401820806D1C3888A842C1DC70462C
:10C5100000280AD02088801B401E80B2FF2802D944
:10C520000C2007B0F0BD069988550020F9E7FFB54B
:10C5300083B016460C9D0D9C1F4602220095019467
:10C540000398FFF79DFF0028EBD13B4610223146B0
:10C55000009501940398FFF793FFE2E7F7B584B0E5
:10C560000025168807461580406B1446002813D016
:10C5700003780598032E51D30221017021881122DE
:10C58000491C89B2218042542188491C89B22180EA
:10C5900043542088401C2080386B00281DD005465D
:10C5A0002088059902461232B24237D811220A5425
:10C5B00020881022401C80B220800A542088401C11
:10C5C00020800F202A5C2388401ECA54228840B253
:10C5D000521C22800028F5DA0025384620300290CF
:10C5E000807B002806D033462246059900F0F9F8F2
:10C5F000050096D10298407B002806D0324621469D
:10C60000059800F018F905008BD1B878002822D0E1
:10C61000059886462088001DB04201D90C2080E78D
:10C62000684679DF0028FAD12188032072465054E9
:10C6300020881921401C80B2208011542088714626
:10C64000401C80B2208041186846008800F0C4F881
:10C65000218840182080F878002817D021880323EB
:10C660000A46FB56C91C0598B142D7D8022181540D
:10C6700021880122491C89B2218042542188491C09
:10C6800089B2218043542088401C2080786800288B
:10C6900017D021880023C3560A46C91C0598B14209
:10C6A000BCD80221815421880A22491C89B22180E8
:10C6B00042542188491C89B2218043542088401C5F
:10C6C0002080388900280AD0009438460196062236
:10C6D00002210830059BFFF72AFF05009FD1388A09
:10C6E00000280AD000943846019607220321103012
:10C6F000059BFFF71CFF050091D1388B00280AD05D
:10C70000009438460196152214211830059BFFF736
:10C710000EFF050087D1386A002806D0334622462E
:10C72000059900F006F90500D8D1786A002806D0EE
:10C7300033462246059900F03DF90500CED1029816
:10C74000007B002807D0334622463846059900F082
:10C7500065F90500C2D13878002807D03346224653
:10C760003846059900F096F80500B7D12846D8E676
:10C77000F0B50C4693B01F216A46118007260027AA
:10C780009180002809D0C17849070DD502A9FFF78B
:10C79000E5FE002809D102AD01E000251780002C3C
:10C7A0000ED0E078002802D0304613B0F0BD01AAC8
:10C7B0000AA92046FFF7D2FE0028F6D10AAA02E015
:10C7C00068460022878068468088C3B26846008831
:10C7D000C1B2284672DFE8E70870000A48700220FC
:10C7E000704730B51588EC1C9C4201D90C2030BD37
:10C7F00002244C5513881C255B1C9BB21380CD541E
:10C8000013885B1C9BB21380012807D0022807D035
:10C81000032807D0042807D0072030BD002004E0FB
:10C82000012002E0CC5401E00320C8541088401CD1
:10C830001080002030BD7CB5054608880C460930C4
:10C84000904201D90C207CBD684671DF0028FAD1E6
:10C8500021880820685420881B21401C80B2208039
:10C860002954208800A9401C80B22080401906224B
:10C87000013102F0F9FB20886946801D80B22080DA
:10C880000978002900D0012129542088401C2080EB
:10C8900000207CBDF8B50F460178144605460129F5
:10C8A00002D16878002806D02088821C9A422DD8B0
:10C8B000012902D006E00720F8BD69784118891CDB
:10C8C000994223D8181A801E86B2684606802188AD
:10C8D000B81C081869467DDF0028EDD128780228A9
:10C8E00005D169460988B14201D809210AE0082129
:10C8F000012805D16878B04202D86A46108001E06C
:10C900006846068068460088FE2801D90C20F8BDDC
:10C910002288401CB8542088401C80B220803954A2
:10C9200020886946401C208009884018208000200B
:10C93000F8BDF8B50646108814468446801D0D469D
:10C94000984201D90C20F8BD32880720062AFAD374
:10C950001927FF01554BBA4201D99A42F3D1718888
:10C960000629F0D3B94201D99942ECD19A4203D0B9
:10C97000994201D08A42E6D8052160462954208890
:10C980001221401C80B2208029542088401C80B293
:10C99000208041193088FFF71FFF2188401880B29E
:10C9A000208041197088FFF717FF218840182080E8
:10C9B0000020F8BD70B5144682880E4605462088D2
:10C9C000111D4118921C994201D8FE2A01D90C2050
:10C9D00070BD521C32542088FF21401C80B2208040
:10C9E00031542088401C80B2208081192888FFF7AC
:10C9F000F3FE2188401880B22080AA88002A09D03E
:10CA0000A968002908D0801902F02EFB2088A98887
:10CA100040182080002070BD072070BDFFB507467C
:10CA2000806A81B0144600283DD000253846203069
:10CA3000009033E00C20B96A68430E18B088801C5F
:10CA4000FE2802D90C2005B0F0BD22880299401CB6
:10CA5000885420881622401C80B2208002990A54F3
:10CA60002088401C80B22080029941183088FFF74E
:10CA7000B3FE2188401880B22080B288002A0AD0F4
:10CA8000B16800290FD0029BC01802F0EDFA20888F
:10CA9000B188401820806D1C0098EDB2007BA84240
:10CAA000C8D80020CFE70720CDE70000FFFF000037
:10CAB00038B56749674A488890420FD04A78664C33
:10CAC000521CD2B24A70237B934208D3091D75DFF2
:10CAD000002803D0A169002900D0884738BD00256F
:10CAE0004D70217C002907D03B2176DF002803D040
:10CAF000A169002900D0884761690029EED0684605
:10CB00000570884738BD70B5054601461C2252485D
:10CB100002F0AAFA4E4C002626702968002906D099
:10CB20000822201D02F0A0FA201D7ADF02E048480A
:10CB3000001D7BDF002807D1401E60806670474AD9
:10CB40000021474800F01AFE70BD10B54448006847
:10CB500000F086FE10BDF8B53D480C3000F06BF8D3
:10CB600000263B4D3C4C002807D0616900291CD0B1
:10CB700001206A461070684616E02878002805D023
:10CB80006169002911D0684606700DE068780028B8
:10CB90000DD0A16832480022006800F028FE00286D
:10CBA00003D0A169002900D088472E70F8BD6168C4
:10CBB000F0E7F8B5284C02880027254DE689102AB1
:10CBC00017D02749112A21D0122A2DD0502A0FD14F
:10CBD000C288801DB2420BD1028B022A08D1C27ECC
:10CBE000837E10021843C007C00F13D0FFF7B3FFB6
:10CBF000F8BD8188698001461548082216310C303D
:10CC000002F032FA6F70002EF0D0F8BD0020C04361
:10CC100068806F70086800F023FE0028F5D0A169D5
:10CC20000029F2D08847F8BD811D094808220C3040
:10CC300002F01AFADAE741880548001D028891429D
:10CC400004D34088814201D80120704700207047FA
:10CC500004200020FFFF00004C240020B1CA030084
:10CC60004CF1030030B585B0002822D00388FE4C7B
:10CC7000A34220D0FD4B1B78002B1CD0FB4B102572
:10CC80005B1C1D705970002401259A7003226946AF
:10CC90000A820094019402940394028A0A808D709F
:10CCA0008C8004A90291039300886946A6DF05B031
:10CCB00030BD0E20FBE70820F9E7F0B58BB00C463D
:10CCC000054602216846017301268674E28A828243
:10CCD000228BC28220461A300027069008976846A9
:10CCE0000184478407A80990A98A288808AAA5DF93
:10CCF000002804D0E96A002919D0884717E068465F
:10CD0000808BC007C00F12D068460782288803A90D
:10CD1000A8DF002812D1A17E20461B300B0002F0B4
:10CD2000F1F909420F1C22242729402B4200FF2041
:10CD3000FE3069460882288803A9A8DF0BB0F0BD41
:10CD40006A4617700BE006221BE069460E720190DE
:10CD5000AA6A284690470020F0E76A461670228BA0
:10CD6000022AF2D2EFE7022000E00320694614E035
:10CD70000420FBE70520F9E7218B032905D20322D4
:10CD800008212846FFF76EFFD8E7417802780802AD
:10CD900010436946888002D006200870D8E7072033
:10CDA000FBE70920E2E70322EBE730B585B00D464B
:10CDB000040038D0002D36D06868002833D0002019
:10CDC000C043AB4B20800FCB049301AB07C3A948F2
:10CDD0006946088001A8811E63DF002822D1221D38
:10CDE00069460120A0DF00281CD168468078A07128
:10CDF000204600F0CEF8002814D1204600F059F962
:10CE000000280FD12946204600F004F9002809D156
:10CE10006868A062A868002800D0E06293490120F9
:10CE20000870002043E70E2041E73EB5002828D0D7
:10CE3000002926D0826A002A23D00A88102A21D00D
:10CE4000112A30D0502A1FD0512A1AD10A4604463E
:10CE5000891D0878022814D14888238A984210D165
:10CE6000907A04280DD006280BD0052809D020463A
:10CE7000891CFFF722FF002803D0E16A002900D0B7
:10CE800088473EBD898810E0CB8802899342F8D15B
:10CE900008226B461A708A7F1A7220310191826AC9
:10CEA000694690473EBD0021C94301803EBDF0B5B3
:10CEB00085B00A4605002DD028886B4988422BD0C2
:10CEC0006A480078002827D0684C1020641C207025
:10CED000072060700127A7700321684601820026A1
:10CEE000E11C104600F04CF801466846008A09181B
:10CEF000684601820096019602960396298A01806F
:10CF00008770868004A80394029028886946A6DF6B
:10CF100005B0F0BD0E20FBE70820F9E7F0B585B0BD
:10CF20000A46050028D028884F49884226D04F4815
:10CF30000078002822D04D4C1120641C207001275D
:10CF4000684607820026611C104600F019F8014669
:10CF50006846008A09186846018200960196029682
:10CF60000396298A01808770868004A80394029022
:10CF700028886946A6DFCBE70E20C9E70820C7E767
:10CF80000870020A4A70020C8A70000EC8700420F1
:10CF9000704730B58FB005461C21684602F07DF819
:10CFA0006946087804210843694608700024019402
:10CFB0000394049405940694A87908A988702D48D0
:10CFC0006946801C0884601C00070794000F0C77DA
:10CFD000103048778A7FF9200240F720921C0240E7
:10CFE000EF200240012002438A77142109A802F0B1
:10CFF00054F808A8099007A80A9069468C8514205F
:10D00000CC8508860D942B46A888083309AAA2DF90
:10D010000FB030BDF0B58FB00F4605461C216846F5
:10D0200002F03BF868460178022631430170002483
:10D0300001940394049405940694A97908A8817036
:10D040000C496846091D0184601C0107090F6846E8
:10D050001031079401770020014668464177817FAF
:10D06000F9200140F72007E0FFFF00001820002012
:10D0700050F1030030150000891C0140EF200140F1
:10D080000120014368468177142109A802F005F8C0
:10D0900008A8099007A80A9068468685C485068670
:10D0A0000D972B46A888203309AA6946A2DF0FB046
:10D0B000F0BD30B58FB005461C21684601F0EDFF8C
:10D0C0006946087808210843102210436946087011
:10D0D000002401940394049405940694A87908A963
:10D0E0008870144869460884601C00070794000F84
:10D0F0000C7710304877887FF9210840F721801C91
:10D10000084010430121084369468877142109A883
:10D1100001F0C3FF08A8099007A80A9069468C850A
:10D120001720CC8508860D942B46A888103309AAB1
:10D13000A2DF6DE73115000031B5054C04E0401E5B
:10D1400000902046FEF7D8FF00980028F7D138BDA0
:10D15000E703000014225043824A00218018017125
:10D16000C18001220161C26041610181704770B5D7
:10D170007C4C142221780F2051430A197A491679E0
:10D1800013694D88121D012E0FD0032E0CD10120E2
:10D190000007006981B2184601F050FF401928DFEE
:10D1A000002801D10121A17070BDA8025588116924
:10D1B0002D1A091892881818101801229202954207
:10D1C00002D2AA0829DFEBE7FF22013229DFE7E7D5
:10D1D000F8B5644C069E65780A2D1DD027787D1918
:10D1E000EDB20A2D01D30A3DEDB214277D432D196E
:10D1F00028716A6103C92961E860EB802E81A178FA
:10D200000020002904D1FFF7B2FF112800D100202F
:10D210006178491C6170F8BD0420F8BDF8B5514C27
:10D220000346A178002001293DD10022A2702646A4
:10D23000317814270D4679438919022B03D0032B2B
:10D2400031D10D202CE0484B5E88761CB6B25E8052
:10D25000C988B6028E4213D35A806178491E617024
:10D26000691CC9B221700A2901D30A39217014211D
:10D2700069430919091D00F065F82846FFF76AFFA0
:10D28000607800280FD0A07800280CD1FFF76FFF3E
:10D29000002808D0112806D02178142251430919FA
:10D2A000091D00F04FF8F8BD70B500242E4E2D4832
:10D2B000748004704470847025462846FFF74AFF46
:10D2C0006D1C0A2DF9D3284834807480001D046039
:10D2D000002070BD10B5244B1A88012A08D00A60BE
:10D2E00091001C1D00686050521C1A80002010BD67
:10D2F000042010BDF8B507461D4616460C460846E4
:10D3000000F01AF800280CD0601900F015F8002879
:10D3100007D033462246394601200095FFF758FFD3
:10D32000F8BD1020F8BD08B50B46002201460320C9
:10D330000092FFF74DFF08BD800701D00020704725
:10D340000120704738B50C46A268074B92001B1DA0
:10D350009D58097862880092024620460830236969
:10D36000A84738BD6824002020200020704770475F
:10D3700030B5CB0008339DB293070024002B01D0B9
:10D38000072030BD554B9A605219DA605C701C70F2
:10D3900058809980002030BDF7B5504C82B060882D
:10D3A0000F4681426AD80020694608704D494C4EAC
:10D3B0004868C005C00D18D0103840B2002807DA00
:10D3C0000207120F083A920892005118C96904E046
:10D3D0008108454A8900891809688007C00EC14044
:10D3E0000806850F012D01D108E00425684636DFC7
:10D3F00002280AD0002801D0FFF7B9FF2278607810
:10D40000A188884203DA401C02E072B6F6E70020E9
:10D41000C0B2904207D066786078884201DA401C3A
:10D4200000E000206070012D09D062B668460078E7
:10D4300037DF022803D0002801D0FFF798FF2848E3
:10D44000864219D0A068F50004994151029900293B
:10D450000CD0002F0AD060883A464643E068301866
:10D4600001F002FEA0682818878002E00021281839
:10D470008180002005B0F0BD0420FBE70920F9E71A
:10D480000EB504E068468188029A0098904702AA87
:10D4900001A9684600F003F80028F3D00EBD70B56E
:10D4A0000E4B05241D785E78AE4215D01D781C7891
:10D4B0009E88B44201DA641C00E000241C705C8881
:10D4C000DE686C43A41904609B68E800C418A48853
:10D4D0000C80185800241060204670BD28200020C1
:10D4E000FFFF000000ED00E000E400E08307FF2202
:10D4F000DB0E9A408907090E994000280BDA0007D5
:10D50000000F08388308F9489B001818C369934333
:10D510000B43C36170478308F5489B001B181868CC
:10D52000904308431860704770B50124F1496004C6
:10D530000860F14940108860EF4940398860EF4D3C
:10D540006C602F20FEF7E8FDAC60ED4D00242F202D
:10D550002C61FEF7E1FDEC7070BDF8B5E849C868D4
:10D560000A690C780F7989688646944600913EE0F6
:10D570000099E20055182A7836E018235343696869
:10D58000521CC918AB78D2B2934200D100220B785A
:10D59000022B02D0032B27D123E04E68034601461D
:10D5A00003E0B14204D00B46C96900291CD0F8E75A
:10D5B000002919D08B4208D1C069002805D1CF4F6E
:10D5C0000126BE600026B44601270E68C969D961EC
:10D5D000002909D00B689B190B6005E00174C06934
:10D5E00000E000210028F9D169789142C5D1214697
:10D5F000641EE4B20029BBD1C14962460A61C86019
:10D600000F71704501D00120F8BD0020F8BDF8B5BC
:10D610000446BB480026C168009107784EE0B84830
:10D62000F90080680D1843E0002C02D02046E46920
:10D630001FE02878182141436A68401CC0B2511885
:10D640002870AA78904200D12E700A784868012A82
:10D6500030D1027C002A2DD18A684260CA6882607B
:10D660000A69C26049698161A5490979002900D028
:10D670004660A34943680A699C46991A0902A14B6E
:10D68000090A994202D28268891807E06146511A54
:10D6900009028268090A8A4202D9511A016000E02F
:10D6A00006604660012186600174C66100F0FFF8E3
:10D6B000002CB9D1287869788842BAD138467F1EC3
:10D6C000FFB20028ABD18E48C1680098814201D0DA
:10D6D0000120F8BD0020F8BD10B58B49002008607E
:10D6E00048608860C860884940390860486000F038
:10D6F00016F910BD10B500F04DF910BDFFB590073B
:10D70000002581B014460E46002833D17C4F002CF2
:10D7100032D0FFF709FF0498786103203870334650
:10D720001821224600204B43BC601834C1008918E0
:10D730000D704D708E704C601C19401C0328F5DB79
:10D74000FD607D7001247148BD70240504600321D3
:10D750001420FFF7CBFE6748803804606C4C0198BA
:10D76000A06003211120FFF7C1FE6068386100202E
:10D7700005B0F0BD0720FBE7BD60FBE7604B9B6891
:10D78000002B07D0002A07D0002805D00068037CB2
:10D79000002B03D008207047072070474174426176
:10D7A0000020704751494868C005C00D19D0103895
:10D7B00040B2002807DA0207120F083A92089200D6
:10D7C0005118C96904E08108494A89008918096823
:10D7D0008007C00EC1400806800F012803D003282F
:10D7E00003D0022070470020704701207047FEB52B
:10D7F0000D46434917468968044600292AD0002C63
:10D8000028D0052D01D20720FEBD6069002821D057
:10D81000607C012820D00026FFF7C4FFC0003849F3
:10D82000019089684018694600F0F4F8002815D086
:10D83000012101703649446049680830E2C030492E
:10D8400001988968411868460078487000F062F8CD
:10D850000020FEBD0820FEBD2E46DDE70420FEBDF3
:10D86000F8B5274D0446A96800291CD0002C1AD011
:10D870006069002817D000262674FFF793FFC700C1
:10D88000A8686946381800F0C5F800280DD00221B4
:10D8900001704460A868391868460078487000F044
:10D8A00039F83046F8BD0820F8BD0420F8BD10B5A1
:10D8B000134BD968002906D002680C68A24204D82C
:10D8C000A21A0A60C161D86010BD0B4604E00B4685
:10D8D000C969121B002904D00C689442F7D3A41A1A
:10D8E0000C600260C161D86110BD000000ED00E075
:10D8F00000E400E080E100E040130140001001403E
:10D9000038200020FFFF7F004011014080E200E04E
:10D910000015014001207B49000508607047F8B5FB
:10D92000794DEC68002C34D078480027406829698C
:10D93000401A0602360A2068B04218D8361AC719AB
:10D940002246107CE46900280FD0002010746B6917
:10D95000002B07D0916950699847002805D0FFF740
:10D9600006FD02E0516990698847002CE3D169788F
:10D97000A878814206D1401CC0B2A870022801D10B
:10D980000020A87060490006800D18310F50FFF785
:10D99000C1FFF8BDFEB55C4C00252769E068029028
:10D9A000684600F04AF80190FFF7D7FD0646019857
:10D9B000002822D000230098E16817E00E680A468C
:10D9C000864202D9301A086012E0801BF318002644
:10D9D0001660D668D169B446002E07D0FE1836020C
:10D9E000360A566066469660D56115460029E5D12F
:10D9F0002846E160FFF70BFE06E02846FFF707FE2A
:10DA0000002801D1002E02D0029800F033F8002047
:10DA10002071FEBD42788378521CD2B2934200D16D
:10DA200000220378934201D1002070470A704168B8
:10DA30004078182250430818704710B53249002327
:10DA40004A788C78A24212D0521CD2B24A70022A72
:10DA500000D14B704A782C4B920018339A580260D0
:10DA6000086910180002000A086101203CE7036001
:10DA7000002039E7F8B52448C16800293ED00E6877
:10DA800022494C680769C078E11B0D022D0AED1C84
:10DA9000002815D101201E4A000450601C4A403A5B
:10DAA000506018494000803108601A4908601A49DE
:10DAB000012008602F20FEF72FFB13490120C870BA
:10DAC000B54200D23546E8190002104B000A403337
:10DAD00018600E4A5168001B091B0902090A00025E
:10DAE000000AC91C814208D9506818602F20FEF72F
:10DAF00013FB0120034940040860F8BDFFF714FD43
:10DB0000F8BD000000E200E03820002000150140D0
:10DB10004013014000E100E00010014010B5044650
:10DB2000082902D00020FFF722FC2168606888479E
:10DB300010BD1CB501910090024A08216846FFF70C
:10DB40002BFC1CBD1DDB030010B5C8484378012B1E
:10DB500003D1012901D102214170100001D0FFF74A
:10DB600006FC10BD10B5C14C6068411C61607D2190
:10DB7000C900884215D3002161602278BC48002A80
:10DB800010D0012A11D0022A12D007235B05032AE4
:10DB900010D08360C160521CD0B2052101F04EFA52
:10DBA000217010BD0123DB0504E001239B0501E08A
:10DBB00001235B05C3608160EDE710B5AB4C48DF26
:10DBC000002801D0FFF7D3FBFFF75AFCFFF7CAFF8D
:10DBD0006078022803D0032801D00428EFD110BDBB
:10DBE00038B50068401C19D00024684600F04CF994
:10DBF00000980178012910D1418800290AD0816854
:10DC0000032000038068002200F048F90099498849
:10DC1000814201D1012400E00024204638BD10B526
:10DC2000044692481C210830FFF77DFB002801D0F4
:10DC3000FFF79DFB8D4800231C2221460830FFF78B
:10DC400059FB002801D0FFF792FB10BD0FB4F8B5C7
:10DC5000684600F019F96846027E418B0123834C27
:10DC6000FF258448002A12D0012A16D0032A2AD080
:10DC70000021022A36D0052A46D0042A4CD0062A92
:10DC800001D104206070F8BC08BC04B01847418082
:10DC9000099981600370057110E04180089A079925
:10DCA0008918099A89188160A52101700571079961
:10DCB000C1600899426101610A99816163706D4890
:10DCC000FFF7ADFFDFE700990A7802704A884280CB
:10DCD00089688160AA2101710799C1600899016171
:10DCE00009990BE0009A1678A52E09D0067056887F
:10DCF0004680926882600571C16001614161DDE723
:10DD0000418081600570F6E700F018FD002801D021
:10DD1000FFF72DFB0320B5E7418081600570009976
:10DD200009790171CBE71CB5534903C901910090F2
:10DD3000FFF7BAFA002807D14C49FF2080020831CA
:10DD400048606846FFF7C6FA1CBD10B500F0B7F989
:10DD500000280CD100F0C0FEFFF72FFFBFF34F8F5C
:10DD600047494648C860BFF34F8F00BFFDE710BD6D
:10DD700070B511DF002801D0FFF7F9FA4149002002
:10DD80000A68404B012180330C468440144204D081
:10DD9000C506ED0E0C46AC401C60401C2028F3D399
:10DDA00003242403A06813DF002801D0FFF7DFFA63
:10DDB000A06800F06FF870BD08B5684600F064F820
:10DDC00000980178A52904D00079AA2801D0002064
:10DDD00008BD012008BD10B500F066FB002803D186
:10DDE00000F042FB002815D06420FFF7A5F900F0F1
:10DDF000E1FA002801D0FFF7BAFA00F055FB00283D
:10DE000001D0FFF7B4FA00F00FFB041E01D0FFF7BA
:10DE1000AEFA204610BD00B5174987B0142208316C
:10DE200001A801F021F90598009001A80FC8FFF79B
:10DE30000DFFFFF7C2FE002007B000BD38B5044655
:10DE4000684600F021F800980178217041886180CF
:10DE50008168A16001792171C168E1600169216176
:10DE6000416961618069A06138BD000058200020CF
:10DE7000000500503425002060F103000400FA057D
:10DE800000ED00E000E100E00149016070470000A2
:10DE900000FC030010B5FEF74FF910BD10B50446A5
:10DEA000002A02D01088002210E00A48FBE7030A8B
:10DEB00000020343A05C584003061B0F43401803B5
:10DEC000584083B21806C00C5840521C8A42EED308
:10DED00010BD0000FFFF000070B5FB4C1E466078CF
:10DEE0001546012902D0032916D108E0052813D1CF
:10DEF0006369002B10D03246294604200BE002282B
:10DF00000AD1F24840688047032060706369002BA3
:10DF100002D0324629469847280001D0FFF727FA59
:10DF200070BD00B5E84987B001200870052069463A
:10DF300008710598009001A80FC8FFF787FE07B089
:10DF400000BD10B5E0480078002801D0082010BDC1
:10DF5000DF4C2068FFF784FC002801D0FFF707FAA8
:10DF60000F21002289042068FFF741FC041E01D024
:10DF7000FFF7FDF9204610BDD34910B5D248203136
:10DF8000016102214170808981B2CF482030FFF7C2
:10DF9000CAF9002801D0FFF7EAF910BDCA4910B547
:10DFA000C9481831016102214170032000038068D3
:10DFB0000F218903081AC003010CC3481830FFF76A
:10DFC000B2F9002801D0FFF7D2F910BD704700B5B3
:10DFD000BF4987B014220C3101A801F045F805981B
:10DFE000009001A80FC8FFF731FEA8E700B587B081
:10DFF000012168460171B44881886846C1800320C8
:10E00000000380680590B1489038416802918168AA
:10E010000391C0680490059800900A46049B0299F9
:10E020000198FFF713FE002089E730B5A74C87B0B1
:10E03000903CA08981B2A4482030FFF774F90028F1
:10E0400001D0FFF794F9A089002382B29E481830CE
:10E0500041680830FFF74EF9050012D1142101A8DC
:10E0600001F01BF8002168460171974881886846D5
:10E07000C180E06804900598009001A80FC8FFF7E0
:10E08000E5FD284607B030BD00B587B003216846DE
:10E0900001718D4881886846C1808C4890384168FC
:10E0A000029181680391C0680490059800900A4627
:10E0B000049B02990198FFF7C9FD00203FE77CB55A
:10E0C000834E814CB1687068019100900025A57065
:10E0D0002146A58020316846FFF7FCF8002801D0D2
:10E0E00065707CBD0320784900038068203148605A
:10E0F00020390A46126A8A610F218903091A4908E0
:10E1000040187149734A1831486000217048FFF780
:10E1100035FB002801D0FFF72AF90F2100228904DE
:10E120003068FFF764FB002801D0FFF720F90120D9
:10E13000A560607000207CBD63494861704770B580
:10E14000426862481468536891689038D2680460E5
:10E150004360C26081600078440701D5840705D11F
:10E160009C0703D18C0701D1940701D0062070BD14
:10E170005B189A18544D0F239B02EA60994213D8FA
:10E180005549564B514CC60709D08868181A904219
:10E190000AD3534820605348606053480FE08968B1
:10E1A000591A4908914201D20C2070BD4F49216093
:10E1B0004F496160800701D54E4800E04E48A0609D
:10E1C0006878012802D00826304670BDFFF7B9FEF6
:10E1D0000600FAD12168E8688847F5E770B50500C0
:10E1E00004D0287A800703D0102070BD0E2070BDA7
:10E1F000354C6078032803D0042801D0052801D0CD
:10E20000082070BD6868E1688600A06880198842AF
:10E2100004D90020C043A0600C2070BDFFF791FE20
:10E220000028FAD12089B2B283B2A9682069FFF729
:10E2300061F80028F1D1A1688919A160E2689142D2
:10E24000EBD0092070BD10B51F4C0820A168002933
:10E2500000D010BD61780429FBD11C48A17880381A
:10E2600000F06AF9002802D00021A17010BD05213C
:10E27000617010BDF8B5144C07466078032804D0CF
:10E28000042804D008252846F8BD04206070A06842
:10E29000002801D00820F8BDFFF753FE0500FAD191
:10E2A00078688600A0788119802901D90920F8BDF5
:10E2B000064AB968803A1018324600F0D5FEA078B8
:10E2C0008019A070DFE700006820002000260020F1
:10E2D0007CF1030023DF03000030000000C00300D6
:10E2E00079DF0300CFDF0300EDDF03009DDF0300D4
:10E2F000CDDF030089E003002BE0030010B58B4C59
:10E300006078052813D1E168A06888420FD1062003
:10E310006070FFF716FE002808D12069E1684068A8
:10E3200000F045F9002801D10721617010BD0820D7
:10E3300010BD10B57D484078072801D0082010BDD9
:10E340007B480068FFF78CFA002801D0FFF70FF830
:10E3500078488068804710BD00B587B006206946C0
:10E3600008710598009001A80FC8FFF76FFCE6E55B
:10E37000F8B51C4617460D46064600F0C1F80028C1
:10E3800017D001200003854207D92346291B301BE3
:10E390001A46FFF7EDFF00280BD13A4629463046D2
:10E3A00000F0B9F8002804D13A462946304600F07A
:10E3B000A7F8F8BDF0B589B06846FFF73FFD0398B0
:10E3C00000282AD001210903069A4018904226D934
:10E3D000501A45081046039A0C46871802466800F2
:10E3E00016180019079003200003806803998842DB
:10E3F0000DD261190846042200F08DF800280CD1D6
:10E4000021460422084600F086F8002805D1BA1BF0
:10E410002B4630460799FFF7ABFF09B0F0BD039AD2
:10E42000069800F078F8F8E700B58BB004A8FFF77D
:10E4300005FD089800280DD0079800280CD00799F2
:10E440000A984018019000210898009180080290D5
:10E45000684618DF0BB000BD0320000380680F2161
:10E460008903091A4908ECE700B58BB004A8FFF747
:10E47000E5FC08980028EDD00F21079889030028B3
:10E480000CD0079A0A9801918018029003220898EC
:10E49000009280080390684618DFDBE70320000342
:10E4A00080680A1A5208EEE730B58FB06846FFF769
:10E4B000C5FC0398002814D001210903069A4018CE
:10E4C000904214D9501A43081046039A5C008218EF
:10E4D0000019611803242403A468039DAC4202D2EE
:10E4E0000E200FB030BD121AFFF742FFF9E70320EC
:10E4F0000BAB07C3039880080E900BA818DFF0E75A
:10E500001FB5032301909008039000930291684681
:10E5100018DF04B010BD1FB50123019090080390CF
:10E5200000930291684618DFF3E70000682000209E
:10E530007CF103000026002070B500250C290ED3C5
:10E5400004464318008941000919581A0A38C2B212
:10E550001E48022A027002D30A318B4201D20920DE
:10E5600070BD1B4800F080FD1A481B4902888A4292
:10E5700002D02388934218D14088884202D0618813
:10E58000814212D1144A0323521E20891B03A84240
:10E590000BD9690009194989914204D09E896D1CE3
:10E5A000B6B2B142F3D1002070BD0B2070BD10B5E2
:10E5B0000022FFF773FC064A5178127809021143D2
:10E5C000884201D00B2010BD002010BD90200020FB
:10E5D0000C26002080100010FFFF000008280CD03F
:10E5E00004DC002807D006280FD108E00B280AD049
:10E5F0000C280AD105E00120704702207047032053
:10E60000704704207047042901D006207047052078
:10E61000704770B515460A4603281FD004281CD140
:10E62000FB4C002906D0E088FA49884215D0132116
:10E6300076DF0EE0284600F0F0FB002801D0FEF760
:10E6400096FEA069A84208D101220321F248FEF7F4
:10E6500009FB002801D0FEF78AFE70BD012110469B
:10E66000FFF7BCFF02460121F0E7F0B50546087A46
:10E670000E4685B081070AD0032211462846FEF7D0
:10E68000F1FA002801D0FEF772FE05B0F0BDE049B6
:10E690000090143100F097FB010011D1DC4C71683F
:10E6A000009A606900F0E0FC009800F0EAFB0100CD
:10E6B00006D120466946143000F0F1FB010003D07A
:10E6C000284600F0CFFAE0E7042001900098800887
:10E6D00002906069039001A8FFF780FD07000BD04E
:10E6E000092F10D0606900F098FB010002D0284685
:10E6F00000F0B8FA3946E3E7307A21694018206122
:10E700006069A061C1E7307A2169411821616078B0
:10E710000028BAD06089401E0004000C6081B4D18A
:10E720002846FEF7FBFB002801D0FEF720FE2089DB
:10E730006081AAE710B5FEF71AFE10BD10B5B44C03
:10E7400001202070E088B349884206D0132176DF8B
:10E7500000280FD0FEF70BFE0CE0A078002809D0AF
:10E7600074DF002801D0FEF702FE172000F048FAFF
:10E770000020A070FEF7E9F9002801D0FEF7F7FDB0
:10E78000002010BD70B50D7804460120A04A2B0072
:10E7900000F0B8FC0A252A3D06111C5156405A10BB
:10E7A000FFF7ACFD0421FFF719FF0246042128E022
:10E7B000FEF7DDFD70BDFFF7C1FF002801D0FEF7B9
:10E7C000D6FDFFF7B6FD002806D170BDFFF7B6FFF6
:10E7D000002801D0FEF7CBFDFFF7BEFD70BD107124
:10E7E00048680078507170BD022010714868007848
:10E7F0000128F8D1FFF727FD0221FFF7EFFE0246BF
:10E8000002212046FEF72EFA0028D1D170BD032048
:10E81000107170BD12792046012A06D0022A07D055
:10E82000032AF6D1FFF721FF70BD00F02CFA70BD6E
:10E8300000F064FA70BD507088881081508170BDFE
:10E8400000205070108170BD20461169FEF72FFB2B
:10E85000DAE710B50446704890B081796846817057
:10E860006E490180382101A800F017FC022168469A
:10E87000017100218171C471012181810490002105
:10E8800001A8FDF775FF002801D0FEF770FD10B05C
:10E8900010BDF0B55E4C8BB0A07800283CD15E482E
:10E8A0001821183800F0F9FB20465B4CC078183C62
:10E8B00000250126002839D02746483700950195C4
:10E8C000029510226946F81D039500F0F1FB00281F
:10E8D00024D0F81D089009976846067509A8049089
:10E8E0006846067708A806900420FFF7B2FF257057
:10E8F0000220207204A8E060282020824648658219
:10E90000183873DF002801D0FEF731FD012044499B
:10E91000C005C8603E4886700BB0F0BD0520FFF70B
:10E9200098FF2670676025722582E7E70620FFF7CB
:10E9300090FF257065602572DEE7F0B50546344C22
:10E94000008800270122E688A7B0172810D024DC11
:10E95000112843D00EDC02287DD0102808D1304980
:10E960008004C860172000F04BF9A888E080A770E9
:10E9700027B0F0BD284C303427461837132851D023
:10E980001428F5D1E889628D0021904200D13946E2
:10E990000023A888E21D82DF1BE051286CD00EDC2A
:10E9A00018287DD01928E3D1A8790028E0D1A770D4
:10E9B000E068401EE0604FD0FFF76BFFD8E75228B9
:10E9C00076D05528D4D1A8790028D1D1132130464A
:10E9D00076DF0028CCD0FEF7CAFCC9E78020694664
:10E9E00088803220E060162000F00AF9012301AA95
:10E9F00006A9E088AADF002801D0FEF7B8FC20783D
:10EA0000002801D1FFF745FF0020C043E080AFE7B9
:10EA100094200020FFFF0000302600203015000069
:10EA2000000500500722D14910A800F01DFB10225C
:10EA3000E11D0CA800F018FB1C22394612A800F0BA
:10EA400013FB0CA80A9012A8099006ABC84A8521AE
:10EA500030467FDFBDE70BE01422C64906A800F070
:10EA600003FB0A9806AC00900FCCFFF7EFF87FE7A6
:10EA70000021304667DFACE7A97900299ED0A87A4B
:10EA8000042803D0062801D0052897D102290BD0ED
:10EA900068460272FF2083306946888102A900E03F
:10EAA00006E03046A8DF94E7022069460872F1E7E5
:10EAB00000F0ABF88DE710B50446FEF77AF8AB48E6
:10EAC00021463038FEF7B1F92046FFF736FF10BD7A
:10EAD00010B5FEF74CFC10BD30B5A54D87B0002435
:10EAE0001C3D2C702C71172000F084F8162000F0CB
:10EAF00081F8172000F084F8162000F081F89E4875
:10EB000000F04AFA002870D19C48FFF715FB00F08E
:10EB10004BF9002869D19548FDF754FB002866D0D1
:10EB2000684671DF002801D0FEF721FC694648786D
:10EB3000401C4870002070DF002801D0FEF717FC51
:10EB400011206946087207228DA102A87CDF0028E7
:10EB500001D0FEF70CFC00940C2168460194018062
:10EB600018214180FF2184809131C1807ADF002803
:10EB700001D0FEF7FCFB082069460094088082481B
:10EB800001908248029079483038FEF70EF900284B
:10EB900001D0FEF7ECFB1C21684600F07EFA7C48B1
:10EBA00001900120800302900094032168460173C4
:10EBB000C48104747748069005946846FDF7A3FF66
:10EBC000002801D0FEF7D3FB6949E122087840080C
:10EBD00040001040DF220C301040087007204870C1
:10EBE00010208870FFF755FE002007B030BD0120CF
:10EBF000E870A5E7684A032180008018016070472B
:10EC00000121814065488160704770B5584C644D62
:10EC10001C3CE088A84201D1082070BDE1780029A1
:10EC20001BD05249012308223431A9DF0028F4D136
:10EC3000022300221146E088A9DF0028EDD12A46F0
:10EC40000C21E088A7DF5749884204D0082802D069
:10EC5000891C8842E1D1002070BD00231A46194664
:10EC6000A9DF70BD10B50A46044603211046FFF720
:10EC7000B5FC024603212046FDF7F4FF002801D031
:10EC8000FEF775FB10BD30B5054687B0002000903B
:10EC900001900290039036486A461C384079107003
:10ECA000344A0C3A106892680490684606920590BF
:10ECB000087A0C2804D0032219E0FEF758FB94E7E9
:10ECC0004C68204600F047F80190201D00F043F802
:10ECD00002902046083000F03EF8039004A8FFF7A9
:10ECE0002EFA002881D00121FFF778FC024601218D
:10ECF0002846FDF7B7FF0028DFD176E7FEB50446CA
:10ED0000087A82070ED08207920F04239B1A0022F2
:10ED1000154604E04E683554401CC0B2521C9A425D
:10ED2000F8D308720120009048680290087A8008A1
:10ED300001906846FFF79EFA00280BD00221FFF7EA
:10ED40004DFC024602212046FDF78CFF002801D031
:10ED5000FEF70DFBFEBD10B5044600F0B6F900024B
:10ED6000E178000A0906084310BD00006026002073
:10ED7000B0200020A8F10300B7EA030013E6030067
:10ED8000446675546172670085E70300D1EA0300A9
:10ED9000CD0C000035E703000007005000050050CF
:10EDA000FFFF0000023000004F4800210170504872
:10EDB0004E4A02608160C16001610422416142608B
:10EDC00081610846704710B5002920D000220A60F2
:10EDD000474A5368002B1ED04B24E400A04218D8A9
:10EDE0005B1E5360D0689723401CD06010699B0065
:10EDF00014684343E3180B60012383409169401C6E
:10EE000019438007800F91611061002010BD0E2012
:10EE100010BD0C2010BD042010BDF0B5344A0646CC
:10EE2000916800292BD057691020791A8907890F1A
:10EE300014680B469725AD004D436519B54206D1C0
:10EE4000012495698C4065400020956104E0491CCF
:10EE50008907890F8F42EDD1491C8E07B60F95693E
:10EE600001210C469C4025420AD19368002B07D013
:10EE70005B1E936053685B1C53603346F1E70420CC
:10EE8000F0BD1B4A9723117C9B00491E8907890FFF
:10EE9000594312681B1FC91850500020704770B5A5
:10EEA00000281DD000291BD0114AD368002B19D08F
:10EEB0005B1ED360936897265B1C93605369B60012
:10EEC0001C4615687343EE1806604B20C0001818E6
:10EED0002858641C0860A007800F5061002070BD96
:10EEE0000E2070BD042070BDB5200020F428002045
:10EEF0006432002010B5FEF739FA10BDF8B5434C66
:10EF00002078002833D02069002807D00026E06848
:10EF1000002805D00025002E04D011E00126F6E7D8
:10EF20000125F8E7684652DF052804D0002804D000
:10EF3000FEF71DFA04E0012602E0216900988847E7
:10EF4000002D10D1608869460880A06861DF05281F
:10EF500004D0002804D0FEF70AFA04E0012502E0FC
:10EF6000E168A0688847002EDCD0002DD3D0F8BD22
:10EF700070B5002901D08C0701D0072070BD234C4B
:10EF80000125A16062802249636010DF0028F5D16D
:10EF9000257016202EDF70BD002803D01B49C860E5
:10EFA000002070470E207047002803D017490861E1
:10EFB000002070470E20704710B5144840680028A4
:10EFC00005D08047002801D0FEF7D1F910BDFFF72A
:10EFD00095FF10BD70B50E46054614461421104627
:10EFE00000F05BF80120002120802161217326724E
:10EFF0006572002D00D0A072002070BD1CB50549BF
:10F0000001910091694660DF1CBD0000B82000201E
:10F01000F5EE03000020002010B5002902D00020EA
:10F02000FEF7A5F9FFF76AFF10BD10B50021024AEF
:10F030000846FEF7B1F910BD19F0030030B50B46D4
:10F04000014600202022012409E00D46D5409D42C2
:10F0500005D31D469540491B254695404019154648
:10F06000521E002DF1DC30BD03460B439B0703D03D
:10F0700009E008C9121F08C0042AFAD203E00B787D
:10F080000370401C491C521EF9D27047D2B201E0F5
:10F090000270401C491EFBD270470022F6E710B5F3
:10F0A00013460A4604461946FFF7F0FF204610BDF6
:10F0B00030B504460020034600E05B1C934203D2B7
:10F0C000E05CCD5C401BF8D030BD0321001D401E2C
:10F0D000037812021A43491EF9D510467047000002
:10F0E000064C0125064E05E0E36807CC2B430C3C9B
:10F0F00098471034B442F7D3FCF7E6FFBCF10300A5
:10F10000DCF1030030B47446641E2578641CAB4205
:10F1100000D21D46635D5B00E31830BC184702E077
:10F1200008C8121F08C1002AFAD170477047002092
:10F1300001E001C1121F002AFBD17047020000004C
:10F140000000000000000000000000002C2400204F
:10F1500023D1BCEA5F782315DEEF12120000000015
:10F1600049DB030000000000020000000000000076
:10F1700000000000000000000000000050250020FA
:10F18000D9DE0300000000000400000000000000C1
:10F19000000000000000000000000000030000006C
:10F1A000000000000000000005000000000000005A
:10F1B000000000000000000000000000DCF103007F
:10F1C00000200020CC0000001EF10300A8F2030084
:10F1D000CC200020B41900002EF103000024F4001C
:10F1E000000000000000000000000000000000001F
:10F1F000000000000000000000000000000000000F
:10F2000000000000000000000000000000000000FE
:10F2100000000000000000000000000000000000EE
:10F2200000000000000000000000000000000000DE
:10F2300000000000000000000000000000000000CE
:10F2400000000000000000000000000000000000BE
:10F2500000000000000000000000000000000000AE
:10F26000000000000000000000000000000000009E
:10F27000000000000000FFFF00000000320000005E
:10F28000000000000000000000000000000000007E
:10F29000000000000000000000000000000000006E
:08F2A000000000000000000066
:020000041000EA
:0410140000C0030015
:040000050003C0C173
:00000001FF
